:10000000F72F00308A000408840A820700340E3477
:100010000D340B340734063405340434033401340E
:06002000043408340C3426
:100D3A00F7007530F6007608F000F101F10A77083D
:100D4A00E7260800F6007608F5007508F000F101BC
:100D5A00F10A7730C126770808007E088A007F08E2
:100D6A008200B2268000840A04087D060319003432
:100D7A00FF0A0319FE0AB62EF4007408F20072087C
:100D8A00F300831603139C18C62E70089B000130CB
:100D9A00F102710A031908009C18D12E7F30F20063
:100DAA0072089C051C141A08F20073088400720861
:100DBA0080000130F2007208F3070130F200720875
:100DCA009B07CC2EF4007008F2007208F300831619
:100DDA0003139C18EC2E7408FF3E9B007F30F20030
:100DEA0072089C050130F102710A03190800831682
:100DFA0003139C18FC2E7308840000089A00013023
:100E0A00F2007208F3070130F20072089B0783129E
:100E1A00031303108B1B03148B13831603131C1564
:100E2A0055309D00AA309D009C141C118312031397
:100E3A00031CF72E8B17F72EF2007208093E840066
:100E4A000120F000700C031C2E2F831203130515CA
:100E5A00312F8312031305117208053E8400012005
:100E6A00F00003300310F00DFF3E031D372F720808
:100E7A00093E462F0310F00DFF3E031D3F2F720857
:100E8A00013E84000120F1000310710C70048700F8
:100E9A000730F1007D30F000F00B512FF10B512F8C
:100EAA008312031305128230F100DD30F000F00BDB
:100EBA005C2FF10B5C2F612F8312031305160800B8
:100ECA0007308312031399048316031385018701DC
:100EDA00851683120313850187013530A7268312ED
:100EEA000313A00004302002031C7D2FFA01842F73
:100EFA003530A72683120313A0002008FA007A08C7
:100F0A002127823083120313A100DD30A000A00B39
:100F1A008C2FA10B8C2F912F7C08031DE72F031018
:100F2A0083120313851A0314003003180130A0003A
:100F3A00A1017908A3007808A2000310A20DA30D4D
:100F4A0020082204A40021082304A5000030240458
:100F5A00A600E0302504A7002608F8002708F900B3
:100F6A00F03079067804031DBC2FFC01FC0AE0303E
:100F7A0079067804031DC82F0130A8070318A90AA7
:100F8A000030A907CA2FA801A90123302902293054
:100F9A0003192802031CE12F7B08A0002008FA008D
:100FAA007A08A0002008F50035309D267A08212706
:100FBA0083120313A801A9014230A000A00BE32F5A
:100FCA000000912FFC017A0883120313A000200865
:100FDA00FB007A08013E0339A0002008FA007A08CB
:100FEA002127912FF801F901FA01FB01FC01A8015F
:060FFA00A9018301652F2F
:02400E00D4F0EC
:104200005800500041006C006C002F005800500016
:1042100041006C006C002B0020006D006F006400FA
:1042200065002000730065006C0065006300740089
:104230006F007200200043006F0070007900720070
:10424000690067006800740020003200300031000F
:1042500035002000490061006E0020004D00610023
:0C4260006C007400620079000000000097
:00000001FF
